:1000000050C000000C94861B0C94A83A0C94D33B6F
:100010000C940E3C0C94861B0C94861B0C94861B33
:100020000C94861B0C94861B0C94861B0C94861BCC
:100030000C94861B0C94861B0C94861B0C94F43C2D
:100040000C94861B0C94861B0C94861B0C94861BAC
:100050000C94861B0C94861B0C94683B0C943C3BC4
:100060000C94861B0C94861B0C94861B0C94861B8C
:100070000C94861B0C947E3B0C94861B0C94FF3DC9
:100080000C94283E0C94513E0C94861B0C94861BB9
:10009000280028F68028F62A9E0083F22A9E351E24
:1000A000800011241FBECFEFCDBFDFE3DEBFE0E94C
:1000B000F0E040E017C0B591A591359125910591EB
:1000C00007FD0CC095918591EF01F92FE82F059060
:1000D0000D92A217B307D9F7FE0104C01D92A21713
:1000E000B307E1F7E13AF40731F703D000C0F89421
:0200F000FFCF40
:1000F2000AD0C2E007D080910E2881FDFBCFC093C9
:04010200F628F8CF14
:02010600D8C05F
:10010800CF92DF92EF92FF92CF93B6D2A5D146D38A
:1001180081E099E29CD181E099E23FD332D3811109
:1001280005C080910E28846080930E2881E099E2B2
:1001380066D280930028882329F080910E28846055
:1001480080930E2881E099E282D181E099E251D230
:10015800EBD1E091A629F091A729E05CFF4F8081BF
:10016800811105C041E059E260E00AD3ECD140E2D8
:10017800C42E47E4D42E46E1E42EF12C80E090E032
:10018800DC0140E050E0BA0126B32074420F511D53
:10019800611D711D26B32072820F911DA11DB11D15
:1001A80021E0C21AD108E108F10871F74039534239
:1001B8006B40710508F054C080399342AB40B105DB
:1001C80008F037C062EE7FE785E698E2A6D16BEECD
:1001D8007FE786E898E2A1D11F9282E08F9385EFAE
:1001E8009FE79F938F9387EC98E29F938F93EDD22D
:1001F800E9EFF9E22AEFC22ED12CE12CF12C85D1BE
:1002080087D0E0EFF9E281D183D0E7EEF9E211D1AE
:100218007FD00CD17DD080910E2888608F7D80643E
:1002280080930E280F900F900F900F900F900F90C3
:100238002CC0E9EFF9E2C4D26BD0E0EFF9E2F9D0D3
:1002480067D0E7EEF9E268D163D0F0D061D0809151
:100258000E28877F80628F7B80930E28C0E016C0AF
:10026800E9EFF9E2D1D254D0E0EFF9E2E2D050D090
:10027800E7EEF9E251D14CD0D9D04AD080910E287E
:1002880088608F7D8F7B80930E28C1E06C2F82E67B
:100298009FE1FFD1C13029F481E099E214D2B9D2AB
:1002A80019D2DAD0CF91FF90EF90DF90CF9041C272
:1002B8001F93CF93DF938091362E9091372E892B01
:1002C80019F1B5D2182FACD2C091362ED091372E55
:1002D800E091362EF091372E848195818093362EC9
:1002E8009093372E1C821D8211119BD2E881F981CF
:1002F8008A819B810995AB01BC0194D229F0CE017A
:10030800DF91CF911F91E6C1DF91CF911F910895A1
:10031800CF93DF93EC018885813009F441C008F45C
:100328005CC0823001F1833009F07DC086E79EE22F
:1003380084D280E89EE281D292D211F488E056C03D
:1003480096D211F488E058C0A0E8BEE295D2E6E75C
:10035800FEE2C283D38381EA9AE38D939C9311973B
:100368008AE99AE35AC082E69EE267D28CE69EE268
:1003780064D275D211F484E039C079D211F484E0E2
:100388003BC0ACE6BEE278D2E2E6FEE2C283D383AB
:1003980083E99AE38D939C9311978CE89AE33DC087
:1003A8008EE49EE24AD288E59EE247D258D211F402
:1003B80082E01CC05CD211F482E01EC0A8E5BEE257
:1003C8005BD2EEE4FEE2C283D38385E89AE38D93A1
:1003D8009C9311978EE79AE320C08AE39EE22DD280
:1003E80084E49EE22AD23BD221F481E08093660421
:1003F8001AC03DD221F481E08093650414C0A4E4BE
:10040800BEE23AD2EAE3FEE2C283D3838BE69AE302
:100418008D939C93119788E59AE380839183CD010E
:0C042800DF91CF9157C1DF91CF91089573
:06043400EEEDF9E228C222
:10043A001082118212821382C12CD12C7601C394AC
:0C044A00C482D582E682F782CF010895BB
:0A0456008093BB2D9093BC2D0895F8
:10046000E6E6F4E038E030832FE946E851E0215039
:1004700040405040E1F700C0000024E020836FE9D5
:1004800086E891E0615080409040E1F700C00000B4
:1004900092E090834FE956E861E04150504060405F
:1004A000E1F700C0000081E080834FE956E861E099
:1004B000415050406040E1F700C00000E5E6F4E044
:1004C00030833FE946E851E0315040405040E1F789
:1004D00000C0000020836FE926E831E06150204031
:1004E0003040E1F700C0000090834FE956E861E03A
:1004F000415050406040E1F700C0000080838FE928
:1005000096E821E0815090402040E1F700C00000D3
:0205100008954C
:0E051200C5D1C482D582E682F782CF0108955A
:02052000B4C164
:0E052200FB01DC0101900D920020E1F708952D
:100530008DE2E2E2F8E2DF011D928A95E9F760912F
:0E054000A6297091A729605A7F4FCF01EACFFC
:10054E00EF92FF920F931F93CF93DF937C018B015A
:10055E00EA0181E0E7D1E114F104A1F0FF92EF92FC
:10056E001F9280E28F938091A7298F938091A62965
:10057E008F9393D181E0BED10F900F900F900F907B
:10058E000F900F900115110591F01F930F931F926D
:10059E0080E28F93C2D180969F938F937ED181E01C
:1005AE00A9D10F900F900F900F900F900F90B5D183
:1005BE00209789F0DF93CF931F9220E22F93805CD8
:1005CE009F4F9F938F9369D10F900F900F900F9025
:1005DE000F900F9003C0805C9F4F0ED080E0DF9194
:0C05EE00CF911F910F91FF90EF9084C1FE
:0C05FA0044E150E0BC0180EC99E2AAC191
:10060600CF92DF92EF92FF920F931F93CF93DF93D8
:10061600EC0181E599E2E1D1811126C089E198E2F8
:10062600A8D1811120C089E1E82E88E2F82E6E015A
:1006360082E1C80ED11C02E719EAF70181917F0118
:100646001F928F931F930F93DF93CF93BFD0229662
:100656000F900F900F900F900F900F90CC16DD0615
:1006660061F780E001C081E0DF91CF911F910F918A
:0A067600FF90EF90DF90CF90089501
:10068000F0D182D28BD290D295D2AED2BBD2D0D280
:0A069000EED2F8D21AD379D025C3B8
:10069A00CF93C62F80934F28909350286DD3C111C2
:1006AA0002C01ED307C048EE53E060E070E082E962
:1006BA0099E20FD042E350E060E070E088E899E206
:0406CA00CF9107C005
:0E06CE0044EF51E060E070E087E499E200C084
:1006DC00CF92DF92EF92FF92CF93DF93EC016A01FE
:1006EC007B01A9D09BD0C701B60171D36E837F83E8
:1006FC0088879987CE019BD3882339F0DF91CF91DE
:10070C00FF90EF90DF90CF90F3C380912D2E882334
:10071C0039F0DF91CF91FF90EF90DF90CF907FC0B9
:0E072C00DF91CF91FF90EF90DF90CF90089576
:10073A00CF93DF932ED49F938F9380E69AE79F936C
:10074A008F93CEEEDCE2DF93CF933ED068E87BE175
:10075A00CE010AD41ED49F938F9381E89AE79F9380
:10076A008F93DF93CF9330D08DB79EB70C968DBF02
:0E077A009EBF68E87BE1CE01DF91CF91F5C311
:0207880010C49B
:10078A0088EA99E228D1811105C080E090E00CD472
:08079A0081E0089580E008955C
:0207A2002BCF5B
:1007A400809140088091440887FDFACF80914508E4
:1007B40080688093450842E350E060E070E085E1A2
:0407C40099E28ACF5D
:0A07C80084EF91E0F8D3CF0108950B
:1007D200AEE0B0E0EEEEF3E0DCC50D891E8986E006
:1007E2008C8309831A838FEF9FE78D839E83AE01EB
:1007F200475E5F4F6F89788DCE010196EAD3EF8114
:0E080200F885E00FF11F10822E96E4E0AAC5E3
:0A0810008AEF90E0D4D3CF010895E1
:0E081A0044E650E060E070E087EF98E2089559
:02082800C0C549
:02082A00C5C542
:0A082C00411551056105710508959D
:0C0836009091420181E090FF80E0089565
:10084200CF93DF93EC01BC0188E39EE2B9D581111D
:1008520004C0BE0186E39EE2B3D51C821D82DF91F5
:04086200CF91089595
:100866008C819D81AE81BF81892B8A2B8B2B08952C
:0A087600488159816A817B81D6CF49
:0A0880001296CD93DC9313970895B0
:10088A001082118212821382C482D582E682F78292
:04089A00CF010895ED
:0A089E00C082D182E282F382089545
:1008A800AEE0B0E0E9E5F4E071C50D891E898F89F5
:1008B800988D26E02C8309831A8397FF02C080E075
:1008C80090E801978D839E83AE01455E5F4F698DE9
:1008D8007A8DCE0101967AD34D815E8157FD0AC08B
:1008E8002F813885421753070CF49A01F801E20F5B
:0A08F800F31F10822E96E4E031C5D4
:10090200CF93C82F80E014D081110BC023E09DE962
:1009120094BF20930010CC2321F09091021091FDFE
:06092200FCCFCF91089507
:0A0928008091A6299091A729089557
:100932009091021092FD0EC0882329F0809102103E
:100942008370E1F708959091021081E0911103C044
:0809520080E0089581E00895A2
:10095A00FB01DC014150504048F001900D9200200B
:0E096A00C9F701C01D9241505040E0F70895BA
:10097800CF92DF92EF920F931F93CF93DF93CDB770
:10098800DEB7A097CDBFDEBF0097D1F06C0180E243
:10099800E82E4FD520E040E060E070E080E04DD5E3
:1009A80081110FC084E0F801D6013FD5F1F7D601D7
:1009B800149685E0FE01399638D5F1F780E001C03C
:1009C80082EEA096CDBFDEBFDF91CF911F910F9130
:0809D800EF90DF90CF9008952D
:1009E0000F931F93CF93DF938C018091292E9091C9
:1009F0002A2E892B09F06BD6C9ECD8E280EE98E25A
:100A0000888399838DEC98E28A839B83BE01C80119
:100A100076D5811121C0C093292ED0932A2EF801BA
:100A200081818330C1F4288139812F5F3F4F01E0FC
:100A300010E043E150E060E070E080E087D5811194
:100A40000BC0E091292EF0912A2E0190F081E02D2B
:100A50008181887F818380E0DF91CF911F910F9109
:020A60000895F7
:100A62000F931F93CF93DF9346D640E054E08EED71
:100A7200FA01808320E234E0F901108280E494E0FC
:100A8200FC011082C0E6D4E06FE06883A0E8B4E025
:100A92001C9200EA14E079E1F801708370E8FA012F
:100AA2007483F9011482FC0114826C8314961C92E3
:100AB2001497F8011482FA0115D6F90113D6FC0134
:100AC20011D6188A198A1A8A1B8A1C8A84E08D8B8D
:100AD2001E8A1F8A50961C92509751961C925197CB
:100AE20052961C92529753961C92539754961C926C
:100AF200549755961C92559756961C925697579610
:100B02001C92F801108A88E0818B9BE0928B138AF9
:100B1200148A858B868B178AE0EEF5E011821082AB
:100B2200148215821382128288E79BE38093C13379
:100B32009093C23389E79BE38093BF339093C03392
:100B42008AE79BE38093BD339093BE338BE79BE3AD
:100B52008093BB339093BC338CE79BE38093B93390
:100B62009093BA338DE79BE38093B7339093B83376
:100B720087E79BE38093B5339093B633DF91CF91B0
:060B82001F910F91089580
:100B880060E080E890E0DFD5E0E8F0E011861086CC
:040B980080E008955C
:0C0B9C0060E080E091E0D5D580E0089595
:0C0BA80060E080E590E0CFD580E008958B
:100BB40060E088E790E0C9D560E08CE790E0C5D5B7
:100BC40060E080E790E0C1D561E081E690E0BDD5CA
:100BD40060E080E690E0B9D560E082E690E0B5D5CB
:040BE40080E0089510
:100BE800E0EAF8E0108212828DE2868381EC83834A
:0C0BF800158217821482108680E0089598
:100C0400E0E0F6E081E0868B118293E19283138227
:100C1400148214861186128695E096831582148AAE
:0C0C2400158A128A138A808380E00895EC
:100C3000E0E4F1E0809141018111FACF148615863C
:100C4000108611868FEF9FEF8287938781E08093D4
:100C50004701109245018093420110925001109279
:0E0C60005501109252018093400180E00895EA
:100C6E00E0ECF8E083E28083118212821092C933A5
:060C7E00138280E00895DE
:100C8400E0E4F8E087E490E18087918780ED858354
:100C940080EC868383E08783138614861686158604
:100CA4001092323410923334109231341092EF3364
:100CB4001092F0331092EE3381E69AE28093E828A2
:060CC4009093E928089559
:100CCA0040E068ED80E191E040D5E0E1F1E0128298
:0A0CDA008FE18383789480E0089591
:060CE4008EE29AE339C51F
:100CEA00CF93DF93CDB7DEB7C858D109CDBFDEBFEA
:100CFA009E012F5F3F4F88E8D9011D928A95E9F737
:100D0A0085E1EEE9FAEAD9018FD3F1F7FE01769689
:100D1A008CE0DF011D928A95E9F791E09AA38AE0B7
:100D2A008CA38BE0EFEBFAEADE0195967DD3F1F71F
:100D3A00FE01F09680E1DF011D928A95E9F721967E
:100D4A009FAF219780EC23968FAF239788EA24964A
:100D5A008FAF249725969FAF259726969FAF269704
:100D6A0041E069E679E2C901F9D4C857DF4FCDBF3E
:080D7A00DEBFDF91CF91089567
:100D82000F931F93CF93DF93CDB7DEB72B97CDBFD2
:100D9200DEBF52D38BE0F80111928A95E9F78DE616
:100DA20095E389839A833CD580E090E00ED50ED5F9
:100DB20080914F28909150288093262E9093272E31
:100DC20007D5C8010DD519D52B96CDBFDEBFDF9152
:080DD200CF911F910F910895CC
:100DDA00CF92DF92EF92FF92A2E3BEE2CD90DD9036
:100DEA00ED90FC9034D580912D2E8823D1F034D506
:100DFA00A0E0B0E0EEE2FEE225D584179507A6074B
:100E0A00B70720F48FEF9FEFA0E0B0E0EEE2FEE23A
:100E1A0019D5C41AD50AE60AF70AC80ED91EEA1E57
:100E2A00FB1EC701B601FF90EF90DF90CF900895A7
:100E3A00CF92DF92EF92FF920F931F93CF93DF939C
:100E4A00EC01CE80DF80E884F9840091382E10917D
:100E5A00392E1C821D82E2E3FEE22AD560F434D5E3
:100E6A002FEFE21AF20AC61AD70AE80AF90ACE825C
:100E7A00DF82E886F986E0E0F0E081E001151105FD
:100E8A0039F0D8011AD5C416D506E606F70618F4BD
:100E9A008130F9F405C080E0F80104811581EECFB4
:100EAA006FEF7FEF80E090E0DCD4FCD4E091382E45
:100EBA00F091392EB9E2E43DFB0719F40480F5817B
:100ECA00E02DEC83FD83C093382ED093392E81E038
:100EDA0007C0848195818C839D83C483D58380E0F8
:100EEA00DF91CF911F910F91FF90EF90DF90CF90FC
:020EFA00089559
:100EFC000F931F9393DCA091382EB091392E10973D
:100F0C0019F41F910F910EC5E2E3FEE219D5D4D46A
:100F1C00CB01BA01601B710B820B930B6115710530
:100F2C0021E082079105B8F0E2E3FEE28AD4E4ED19
:100F3C00F9E2415051096F4F7F4F468357836087C9
:100F4C007187A483B583E093382EF093392E6FEF1D
:100F5C007FEF80E090E084D462DC81E080932D2EE2
:060F6C001F910F91089592
:100F72009C019091232E923068F484E0989FF001B6
:100F82001124EF5FF74D20833183628373839F5F68
:0A0F92009093232E81E098E2DDC465
:0E0F9C008091A6299091A729805C9F4F08950F
:080FAA0070E080E090E0089582
:0C0FB200880F880F60E070E08260D1C4FE
:100FBE00A0E0B0E080839183A283B3838483958382
:060FCE00A683B78308951D
:100FD400ABE0B0E0EFEEF7E0CDC16C017B018A013C
:100FE400FC0116821782838181FFA7C1CE0101967D
:100FF4003C01F6019381F70117D5882309F499C1BF
:10100400853219F411D5853221F4B60190E0D3D498
:10101400F0CF912C212C312CFFE1F315D8F08B3239
:1010240079F038F4803279F08332A1F4232D2061F1
:101034001DC08D3261F0803369F4232D216016C008
:10104400832D8260382EE32DE4603E2E2AC0F32DDA
:10105400F8601DC037FC29C020ED280F2A3040F06D
:101064008E32B9F436FC65C1232D2064322E19C0AA
:1010740036FE06C08AE0989E200D1124922E11C0DF
:10108400EAE02E9E200D1124222EF32DF0623F2E35
:1010940008C08C3621F4832D8068382E02C088362F
:1010A40021F4F701C1D48111B7CF982F9F7D9554B6
:1010B400933028F40C5F1F4F9FE399830DC0833650
:1010C40031F0833771F0833509F055C020C0F80141
:1010D400808189830E5F1F4F88248394912C530150
:1010E40012C02801F2E04F0E511CF801A080B1801B
:1010F40036FE03C0692D70E002C06FEF7FEFC501BB
:1011040007D54C018201F32DFF773F2E15C028012E
:1011140022E0420E511CF801A080B18036FE03C0CB
:10112400692D70E002C06FEF7FEFC501E6D44C017A
:10113400F32DF0683F2E820133FC19C0822D90E01C
:1011440088169906A0F4B60180E290E034D42A947B
:10115400F5CFF50137FC859137FE81915F01B6012A
:1011640090E029D421102A9421E0821A9108811454
:10117400910479F7D5C0843611F08936F1F4F80179
:1011840037FE04C057D40C5F1F4F08C060817181C3
:10119400072E000C880B990B0E5F1F4FF32DFF7663
:1011A4003F2E97FF03C0BFD4F0683F2E2AE030E003
:1011B400A30145D4882E861841C0853731F4232DE8
:1011C4002F7EB22E2AE030E025C0932D997FB92ED0
:1011D4008F36C1F018F4883579F0ABC0803719F038
:1011E400883721F0A6C0E92FE061BE2EB4FE0DC001
:1011F400FB2DF460BF2E09C034FE0AC0292F2660DF
:10120400B22E06C028E030E005C020E130E002C084
:1012140020E132E0F801B7FE04C00CD40C5F1F4F8C
:1012240006C06081718180E090E00E5F1F4FA301D2
:1012340006D4882E8618FB2DFF773F2E36FE0DC070
:10124400232D2E7FA22E891458F434FE0BC032FCB9
:1012540009C0832D8E7EA82E05C0B82CA32C03C0F4
:10126400B82C01C0B92CA4FE0FC0FE01E80DF11D7D
:101274008081803321F49A2D997EA92E09C0A2FE83
:1012840006C0B394B39404C08A2D867809F0B3944D
:10129400A3FC10C0A0FE06C0B21480F4280C922C4B
:1012A4009B180DC0B21458F4B60180E290E083D3C9
:1012B400B394F8CFB21418F42B1802C0982C212C34
:1012C400A4FE0FC0B60180E390E075D3A2FE16C061
:1012D400A1FC03C088E790E002C088E590E0B60175
:1012E4000CC08A2D867851F0A1FE02C08BE201C0A9
:1012F40080E2A7FC8DE2B60190E05DD3891430F45E
:10130400B60180E390E057D39A94F8CF8A94F3011E
:10131400E80DF11D8081B60190E04DD38110F6CF28
:10132400222009F466CEB60180E290E044D32A94E8
:10133400F7CFF6018681978102C08FEF9FEF2B963E
:04134400E2E100C022
:101348002A88398848885F846E847D848C849B844D
:10135800AA84B984C884DF80EE80FD800C811B815B
:10136800AA81B981CE0FD11DCDBFDEBFED01089591
:101378002F923F924F925F926F927F928F929F929D
:10138800AF92BF92CF92DF92EF92FF920F931F938B
:10139800CF93DF93CDB7DEB7CA1BDB0BCDBFDEBF64
:0213A8000994A6
:0C13AA00E0E4F1E082818E7F82830895F0
:0C13B600E0E4F1E0828181608283089510
:1013C2000F931F93CF93DF93FC0120813181232B55
:1013D20041F18B01EC0127DA88819981E881F98159
:1013E2008017910739F4848195818883998385DDFB
:1013F200C1E018C0A0E0B0E0309781F0E017F1073B
:1014020041F48481958114968D939C931597C1E044
:1014120006C0DF010480F581E02DEECFC0E004DAE2
:1014220001C0C0E08C2FDF91CF911F910F910895E1
:0814320001900D928A950895C6
:08143A008E010F5F1F4F0895A2
:10144200AF92BF92CF92DF92EF92FF920F931F93D0
:10145200CF93DF93CDB7DEB7C95CD109CDBFDEBF75
:10146200F82E6801012B09F439C084E0E81619F05E
:1014720080E2E81233C0E091292EF0912A2EA0805A
:10148200B1808E0108531F4F8F2DD3D3811127C0F6
:1014920080E2E81203C08F2D8068F82EFC82C853C8
:1014A200DF4F88819981C85CD0408D839E83BDD3F4
:1014B200C50142D3811113C06091292E70912A2E49
:1014C200CE01019642D381110AC04E2D50E0BE01D9
:1014D200685F7F4FC601A0D380E001C082EEC75390
:1014E200DF4FCDBFDEBFDF91CF911F910F91FF90F4
:0C14F200EF90DF90CF90BF90AF90089576
:1014FE000F931F93CF93DF93FB010097D1F030979B
:10150E00C1F0608171816115710599F0228133817D
:10151E00232B79F0EF018C01FC018181BFD3811166
:10152E0009C06A817B81C801DF91CF911F910F9114
:0E153E00A6C382EEDF91CF911F910F91089509
:10154C002F923F924F925F926F927F928F929F92C7
:10155C00AF92BF92CF92DF92EF92FF920F931F93B5
:10156C00CF93DF93CDB7DEB7A597CDBFDEBF19A262
:10157C001AA2833010F082EE8EC0823019F46031E2
:10158C007105C8F70115110511F480E084C021150F
:10159C00310589F328012CA33DA35A011B01F82E18
:1015AC00AE014F5D5F4F85D3811175C029A13AA162
:1015BC00C8018A0D9B1D28173907E8F2350165E033
:1015CC00769467946A95E1F720E22BA3C12CD12C79
:1015DC00812C912C84149504C0F68BA18032C1F41B
:1015EC0089A19AA1930155E0220F331F5A95E1F777
:1015FC00821B930B809760F46401CA0CDB1CD6949D
:10160C00C794D694C79497E0C922DD2424E02BA379
:10161C00EBA00DDF2C2D462DB1018F2D0CDF811190
:10162C003AC0C30123E0880F991F2A95E1F78C0D6E
:10163C009D1D880F991F880F991F8A159B0520F4F3
:10164C00B501681B790B02C060E070E02BA1822F02
:10165C0090E0861B970B82010819190980179107D6
:10166C0008F48C0181E090E08C0F9D1F680F791FAE
:10167C00A8018CA19DA1880D991DC9D2800E911E27
:10168C009BA1903221F42FEF621A720AA3CF8FEF35
:10169C00C81AD80A9FCFA596CDBFDEBFDF91CF91D8
:1016AC001F910F91FF90EF90DF90CF90BF90AF9074
:1016BC009F908F907F906F905F904F903F902F9066
:0216CC0008957F
:1016CE008091292E90912A2E34D3811104C010922C
:0816DE00292E10922A2E089516
:1016E600108A118A128A138A148A158A168A178A08
:0216F600089555
:1016F800E0E9F4E029D3E83984E0F807D9F7E0EB2A
:10170800F4E022D3E83B84E0F807D9F7E0E1F4E01D
:101718001BD3E83184E0F807D9F7E0E3F4E014D309
:10172800E83384E0F807D9F7E0E5F4E00DD3E835CD
:1017380084E0F807D9F7E0E7F4E006D3E83784E077
:06174800F807D9F708952F
:06174E00462F68ED00C00B
:08175400FC0164BF408308950D
:0A175C008093C7339093C8330895BB
:10176600CF93DF93CDB7DEB7C459D109CDBFDEBF66
:1017760028E8FC01DE01119601900D922A95E1F709
:10178600FC01EF5BFF4FE5D2C757DF4F8883998394
:10179600AA83BB83C958D040C357DF4F8883998338
:1017A600AA83BB83CD58D040CF56DF4F1882C1598C
:1017B600D040CE010196D2D2CC56DF4FCDBFDEBF90
:0617C600DF91CF910895B0
:0217CC0014C344
:0417CE0081E0089519
:1017D20010927C3486EB9EE320D3789481E00895C6
:1017E200CF93DF93EC014CD3811104C0CE01DF9182
:0A17F200CF9118C3DF91CF91089545
:1017FC0080919C3481110EC089E7E3EAF4E3DF01A8
:10180C001D928A95E9F781E080939C341092A13463
:06181C001092A2340895B1
:1018220089E7E3EAF4E3DF011D928A95E9F7109272
:101832009F341092A03410929D3410929E341092D4
:0C1842009A3410929B3410929C3408954C
:0A184E004081518162817381089589
:0A185800C60ED71EE81EF91E089503
:0A186200809148019091490108951A
:10186C00CF92DF92EF92FF920F931F930FEF1FEF28
:10187C0020E030E068017901C61AD70AE80AF90AB3
:10188C00EEE2FEE206D880E090E0FFD20AD0AEE2B3
:10189C00BEE204D31F910F91FF90EF90DF90CF9099
:0218AC00F4C284
:0C18AE00E0E4F1E083818E7F83830895E5
:0A18BA0080819181A281B381F8C200
:0E18C40016964D915D916D917C911997089546
:1018D2000F931F93CF93DF93C091382ED091392E5F
:1018E200EDD27ADA209781F00E811F812885398521
:1018F200061B170B280B390B0E831F83288739878A
:101902000C80DD81C02DEECFE2E3FEE21ED0061B8D
:10191200170B280B390BA2E3BEE20D931D932D93F7
:0E1922003C931397DF91CF911F910F91089581
:101930000E9414041092322E1092332E1092342EE4
:0C1940001092352EC0D210922D2E08956A
:0A194C00008111812281338108958A
:0A1956008093242E9093252E08950F
:101960000F931F93CF93DF93CDB7DEB7C75CD10939
:10197000CDBFDEBFE091292EF0912A2E208131814A
:101980005CDD97ECF80111929A95E9F78C836D83F1
:101990007E83B801C901A0D2811106C06091292EB1
:1019A00070912A2EC801D2D0C953DF4FCDBFDEBF00
:0A19B000DF91CF911F910F91089570
:1019BA000F931F93CF93DF93FB01238121FD03C074
:1019CA008FEF9FEF29C022FF13C04681578188D22B
:1019DA0044F4A081B1819D012F5F3F4F2083318361
:1019EA008C93268137812F5F3F4F2683378314C01C
:1019FA008B01EC01FB010084F185E02D0995892B0F
:101A0A00F9F6D80116968D919C911797019616961C
:101A1A008D939C931797CE01DF91CF911F910F91D0
:021A2A0008951D
:0C1A2C0093FD859193FF81917F01089547
:0A1A3800608171818281938108951D
:101A4200FA01AA27283051F1203181F1E8946F93ED
:101A52006E7F6E5F7F4F8F4F9F4FAF4FB1E03ED093
:101A6200B4E03CD0670F781F891F9A1FA11D680F31
:101A7200791F8A1F911DA11D6A0F711D811D911D64
:101A8200A11D20D009F468943F912AE0269F1124D9
:101A92003019305D3193DEF6CF010895462F47703D
:101AA200405D4193B3E00FD0C9F7F6CF462F4F7098
:101AB200405D4A3318F0495D31FD4052419302D0F6
:101AC200A9F7EACFB4E0A69597958795779567959C
:101AD200BA95C9F700976105710508959B01AC019C
:101AE2000A2E06945795479537952795BA95C9F7C3
:0C1AF200620F731F841F951FA01D089534
:101AFE00FC010590615070400110D8F780959095CB
:061B0E008E0F9F1F0895D9
:101B1400FC016150704001900110D8F780959095B8
:061B24008E0F9F1F0895C3
:101B2A0090958095709561957F4F8F4F9F4F08953F
:101B3A00CB0122E0FB01228327E02183D6D180E07A
:021B4A000895FC
:101B4C00AF92BF92CF92DF92EF92FF921F93CF93FF
:101B5C00DF9300D0CDB7DEB77C016B01DB016D915B
:101B6C007C91FC01828163D2811145C0D601ED913B
:101B7C00FC911197A280B380C2D1C6D1182F8111CC
:101B8C0035C0F701418150E0B701D601B8D1D2D1AF
:101B9C00182F81112BC0B50180E090E0D1D1B6E0B7
:101BAC00EB0EF11C80ECF70111928A95E9F780ECB1
:101BBC0090E089839A8389D2B701D601A0D1CED186
:101BCC00182F811113C089819A818430910520F4DA
:101BDC00892B59F417EE0AC0C701C6D1182F8111F1
:101BEC0005C0C701EBD1182F01C016EEF60182819A
:101BFC00938110D2812F0F900F90DF91CF911F9175
:0E1C0C00FF90EF90DF90CF90BF90AF900895C3
:101C1A00FB01DC0102C001900D9241505040D8F7FF
:021C2A0008951B
:081C2C00BE016F5F7F4F0895B8
:101C34000F931F93F801309719F18370833001F1EA
:101C440010821182922F977050E0292F30E0823059
:101C540041F063E0440F551F6A95E1F7242B352BBF
:101C64000BC0542F4427242B352B93E0660F771F8A
:101C74009A95E1F7262B372B2083318380E001C02E
:081C840082EE1F910F910895FB
:101C8C00009759F06115710541F0FC012081FB01B1
:0E1C9C00208381839283CB011CC282EE0895C7
:101CAA006115710529F0FB018083118280E0089596
:041CBA0082EE089519
:101CBE00FA013097E1F1A091292EB0912A2E1296B9
:101CCE000D90BC91A02D11960D90BC91A02D11964A
:101CDE009C9191110BC0813091F028F0823039F532
:101CEE0080E290E01AC088E590E017C0813039F0AC
:101CFE0018F0823039F01BC080E890E00EC080E40E
:101D0E0090E00BC06830710518F484E290E005C0D5
:101D1E006830710531F480EA91E08083918380E030
:101D2E0008956031710518F488E490E0F6CF82EEE4
:021D3E00089506
:101D4000009721F0FC0182819381F5C182EE089514
:081D50008081886081930895F1
:0A1D580080819181A281B38108957A
:101D6200DF92EF92FF920F931F93CF93DF93CDB742
:101D7200DEB7C85DD109CDBFDEBF009771F1D42EA9
:101D82007B018C01FCD1811128C088E8F801DE01B9
:101D920011964EDBF1F7F801E857FF4F8CE0DE01B8
:101DA200A653BF4F45DBF1F7F70180818823A9F0E5
:101DB200EF2899F080E4DE01A757BF4F39DBF1F736
:101DC200C753DF4FD882C95CD04010928F3428EDC0
:101DD200D5D168E881E0BED101C084EFC852DF4F9F
:101DE200CDBFDEBFDF91CF911F910F91FF90EF909A
:041DF200DF900895E1
:101DF6008091883491E0980F90938834811107C0C0
:101E060080918134882319F0FFD1882311F080E076
:061E1600089584EF089519
:0A1E1C008093B9339093BA33089510
:101E2600CF93DF93CDB7DEB7A697CDBFDEBF0097C2
:101E3600F1F0FC01808191818093903490939134EC
:101E460010928F3421E633E140E353E160E080E015
:101E56002AD2882311F08BEF0BC082E08093923454
:101E660004D28111F8CFCE01019605D201C081EFCF
:0C1E7600A696CDBFDEBFDF91CF9108958E
:101E820080E01CD2811104C091E0909392340895B5
:041E920084EF08953C
:101E96002091410121FDFCCF809348019093490197
:021EA60008959D
:0C1EA8008D919D910D90BC91A02D08958E
:0A1EB400C816D906EA06FB060895D9
:081EBE0060E070E0CB01089523
:101EC60010922E2E10922F2E1092302E1092312E0E
:021ED60008956D
:101ED800CB0127E1FB01228327E0218307D080E0A3
:021EE80008955B
:0A1EEA002481358142175307089543
:101EF400BC016F5F7F4FFC018181825090E0AB0198
:061F0400480F591F05C241
:0A1F0A0012968D919C911397089593
:101F1400CF93DF93EC01EB85FC850995803D59F463
:101F240069E170E080E090E00FD0EB85FC85CE01A4
:0C1F3400DF91CF910994DF91CF910895C7
:0C1F4000DC011796ED91FC9118970994B4
:101F4C0010D259F0E3ECF9E03197F1F700C0000042
:0C1F5C006150710981099109F3CF0895CB
:0C1F6800DC011996ED91FC911A97099488
:101F7400EF92FF920F931F93CF93DF9300D0CDB7CF
:101F8400DEB77C01FC0180818250082F10E0A1D0D3
:101F9400B701C801BDD1F701E00FF11F998180811C
:101FA400981306C09A818181981302C080E001C011
:101FB40085EE0F900F90DF91CF911F910F91FF90BD
:041FC400EF900895FD
:101FC800FC012081243031F581818730D9F048F433
:101FD8008130A1F0F8F0833099F08530C9F486EDAE
:101FE80008958F3089F020F4883091F48AEF0895AD
:101FF800813161F08F3F61F484ED089581ED08959A
:1020080082ED089587ED089584EF089583EF08958C
:0820180081EE089580E00895B7
:10202000CF93DC011D96ED91FC911E970995C82F69
:0A203000A3D18CDF8C2FCF9108950F
:10203A00CF93DF93FB019081913031F0D0F0923051
:10204A0039F0933049F011C093E128E031EB1CC01C
:10205A0094E12CEC30EB18C09181983271F09836EB
:10206A0081F096E12AE830EB0FC090E020E030E002
:10207A000BC09EE021E431EB07C096E128E430EB87
:10208A0003C096E126E030EB4FEF5FEF42835383C4
:10209A0040E0491789F0D9012D5F3F4FE9012397A5
:1020AA005881581307C011968D919C91129782837B
:1020BA00938302C04F5FEDCF82819381019611F421
:0C20CA0082EF01C080E0DF91CF9108950B
:0820D600AE014F5F5F4F08955A
:1020DE000F931F93CF93DF93CDB7DEB76297CDBF2C
:1020EE00DEBF8C019CDD44D1D80111966D917C919F
:1020FE0012971396ED91FC911497CE0101960995C6
:10210E0081110AC089899A89F801818B928B058089
:10211E00F681E02DC80109956296CDBFDEBFDF9135
:08212E00CF911F910F9108955C
:10213600CF93DF93009741F0EC0169897A89888112
:102146004BD1198A1A8A01C082EEDF91CF91089588
:10215600CF92DF92EF92FF920F931F93C12CD12C57
:10216600E12CF12C00E010E03DD11F910F91FF9082
:08217600EF90DF90CF90089577
:02217E0000C29D
:10218000FC01892B09F43FC080818823E1F1DF0144
:102190000D900020E9F71197AE1BBF0B919798F5B2
:1021A00081A181508E3078F5DF01AF5BBF4F8C91FC
:1021B000811108C011968C91811104C011968C91E7
:1021C000882309F187AD813001F18330B1F482A118
:1021D00081508430C0F483A18F7E8A30A1F484A121
:1021E000882389F0B496DF010D900020E9F711975C
:1021F000AE1BBF0B5B9748F006C0823021F483A171
:0E2200008850893310F084EF089580E008952F
:10220E000F931F93CF93DF9300D000D0CDB7DEB7DF
:10221E000BD2B4D10ED2B2D110D2182F81110FC061
:10222E0005E004C062E00E94C403E5D1015079F0DC
:10223E004BDF6FE00E94C40303D2882311F010E03D
:10224E0007C0898182FFEECFD0D111E001C0CDD180
:10225E00812F2496CDBFDEBFDF91CF911F910F91BD
:02226E000895D1
:0C227000109288341092813480E00895B0
:10227C000F931F93CF938C01B8DD81110DC0B80162
:10228C0081E0EED1C82F41D2C11105C0C801CF9158
:10229C001F910F9150C28C2FCF911F910F910895C8
:1022AC0085D2811104C07BD27CD281E0089580E07C
:0222BC00089583
:1022BE00CF93DF93D82F99D3811102C0C1E01FC0F5
:1022CE0035D330D38FD397D135D36AE00E94C40370
:1022DE0092D134D36AE00E94C4038DD133D3C82F78
:1022EE008111ECCFDD2359F033D3882339F320E06D
:1022FE0030E0A90160E073E082E090E034D38C2FEF
:06230E00DF91CF9108955C
:102314000F931F93CF93DA01FB018B01080F191F51
:1023240020E030E00E171F07C9F0C19168E070E0AB
:1023340091E0832F881F8827881F220F331F41E0D5
:102344005C2F592309F440E0481719F085E0282749
:102354003058990F6150710961F7E4CF2C931196AD
:0A2364003C93CF911F910F91089553
:0A236E0061157105810591050895C0
:0623780061E00C94D507A2
:10237E000F931F93CF93DF93EC018B0189819A8189
:10238E0036D3F801808191818B839C8382819381E6
:10239E008D839E83848195818F8398878681978193
:1023AE0089879A87808591858B879C87848595857B
:1023BE008F87988B828593858D879E87808991895B
:1023CE00898B9A8B80E0DF91CF911F910F910895A9
:0C23DE00811102C0CB0136C381EE0895CE
:1023EA002F923F924F925F926F927F928F929F921B
:1023FA00AF92BF92CF92DF92EF92FF920F931F9309
:10240A00CF93DF93CDB7DEB72C97CDBFDEBF962F24
:10241A009F779A8789870115110529F0F701389660
:10242A00EC0DFD1D02C0F9013896EB87FC87EB85A0
:10243A00FC85ED33F64008F03CC0360159016A01CB
:10244A00962E882ED3DC811134C02B853C85C90198
:10245A00A0E0B0E0DC019927882788299C01AD011A
:10246A0039292D833E834F83588764D37ED26CD318
:10247A0068E75CD37AD219821A821B821C8248EEE0
:10248A00842E43E0942E07C085EF881681E09806D3
:10249A0010F46DDFB2D091E0891A9108A8F0AE016C
:1024AA004B5F5F4F68E742D3CDD0C9D0882319F07C
:1024BA002DD18FEF4AC08D8181FDE6CF07DE60E026
:1024CA0074E085E190E0BED0BAD0811109C02980BC
:1024DA003A804B805C80211431044104510419F480
:1024EA0015D18DEF32C028E030E0AE01475F5F4F73
:1024FA00C201B101ABD298E0290E311C411C511C1A
:10250A00C114D10429F09501A601C201B1019ED2DC
:10251A000115110549F0C201B101660D771D811D32
:10252A00911D9701A80192D20AD322E0880F991F20
:10253A00AA1FBB1F2A95D1F79C01AD0122606CE648
:10254A00F5D213D2E3D07BD081952C96CDBFDEBFD6
:10255A00DF91CF911F910F91FF90EF90DF90CF9075
:10256A00BF90AF909F908F907F906F905F904F90A9
:06257A003F902F90089530
:0A25800030E0AE014F5F5F4F089599
:10258A008F929F92AF92BF92CF92DF92EF92FF9279
:10259A00CF93DF9300D000D0CDB7DEB74B015C01FB
:1025AA0069017A0193DD4ED0D4D2DB01CA018C21B4
:1025BA009D21AE21BF2179DC51F09A01AB012C2972
:1025CA003D294E295F29CAD2C501B401CED18091D5
:1025DA006F2A2496CDBFDEBFDF91CF91FF90EF9097
:0E25EA00DF90CF90BF90AF909F908F9008959C
:0C25F80010926F2A65E08CEF9DEBB6C2DC
:10260400CF92DF92EF92FF926B017C01C114D1044F
:10261400E104F10449F081E090E0BBD281E0C81A02
:10262400D108E108F108F2CFFF90EF90DF90CF904E
:02263400089507
:0A26360021E0B9D26BE00C94D50747
:0826400088D261E00C94D5077B
:0626480080916F2A089545
:10264E0020916F2A222311F081E0089521E020933A
:0E265E006F2AA9D28111F8CF10926F2A089529
:10266C00FF920F931F93CF93DF93CDB7DEB72C97C9
:10267C00CDBFDEBF6115710509F43DC08B01F82E8D
:10268C0086E2FB0111928A95E9F7AE01475F5F4F35
:10269C0068E070E08CE090E0D4DF882321F080E0EB
:1026AC0090E0DC0111C089859A85AB85BC850097CB
:1026BC00A105B105A1F3BC01CD01836028E059DD72
:1026CC00ABD28111ECCFF9D2AA27BB270097A10579
:1026DC00B10511F484EF10C0F11003C080E090E05C
:1026EC00DC01BC01CD01836026E230E0A80194D26C
:1026FC00882311F0EFCF81EF2C96CDBFDEBFDF9199
:0A270C00CF911F910F91FF900895E7
:1027160080918834882319F0815080938834809181
:102726008834811107C080918134882319F0CDD275
:0C273600882311F080E0089584EF0895DE
:10274200FC01892B69F1248130E0322F2227868116
:102752008F70A901482B258180E1289F90011124C7
:102762003327242B352B678170E0762F66278185EE
:102772008F70682B408580E1489FA0011124552766
:10278200CB01842B952B2115310551F0009741F097
:102792008236934138F42136334120F080E00895A7
:0827A20081EF089583EF089513
:0427AA0081E008952D
:0A27AE0081E080936F2A80E0089517
:1027B8004F925F926F927F92BF92CF92DF92EF9289
:1027C800FF920F931F93CF93DF9300D000D0CDB724
:1027D800DEB7B82EF62E29013A0120E030E0A90133
:1027E8006CE070E0CB01C2D0B2D2C0D020E030E0C3
:1027F800A901A8D2BBD019D3C4DE882311F080E088
:1028080083C01AD3BEDE8111FACF64E190D17ED2A3
:1028180097FFFBCF6CEB77E082E090E077D260FF28
:1028280009C0BB20D1F02DE735ED4CE15CE38AD23D
:102838009DD01CC000ED17E00150110990F398DD00
:10284800DDDE6CE070E0CB0161D26E39704D8D4AEF
:10285800904191F7012B29F7D2CFFF2039F090E86A
:10286800C92EDD24D394E12CF12C04C0C12CD12C29
:102878007601D394A30192015ED178D070D2DC01A5
:10288800CB019F70AA27BB27803A9340A105B105C9
:1028980010F06894C1F8A701960160EA74E180E03D
:1028A80090E064D014DC60EA74E180E090E0CBDE74
:1028B800811103C045D1FADA71F721E63FE242E51A
:1028C8005FEE6CE070E0CB0151D001ED17E00150F4
:1028D800110909F494CF62E00E94C4038FDEB1109D
:1028E8000BC029D113D2663376428345924079F7DB
:1028F8002ED23CD0AAD208C025D208D2633C714C53
:102908008D45974D21F781E02496CDBFDEBFDF913D
:10291800CF911F910F91FF90EF90DF90CF90BF90D4
:0A2928007F906F905F904F9008952C
:0829320082E080930604089581
:08293A0088E08093A6040895D3
:0829420088E08093A5040895CC
:08294A0082E08093050408956A
:0C29520010926F2A69E081E09EEB09C141
:10295E0069D214DE811104C06CD28DD291E0811146
:06296E0090E0892F08959E
:10297400CF92DF92EF92FF92CF93DF93CDB7DEB782
:102984002897CDBFDEBFE0916F2AEE2311F081E0DE
:1029940024C0E1E0E0936F2A61337105810591055C
:1029A40040F4E3ECE983E0E8EA83FE013396A7E030
:1029B40007C0E9ECE9838A837B83FE013496A8E0AF
:1029C400608351834283338324836A2FCE0101962B
:1029D400CDD08111DCCF10926F2A2896CDBFDEBFF7
:0E29E400DF91CF91FF90EF90DF90CF9008959C
:0629F20062E30C94D5071E
:0429F80081E00895DD
:1029FC00FB01DC018C91811124C08AEF98E3808368
:102A0C00918381E099E38283938380E399E38683C6
:102A1C00978383E099E38483958381ED99E384879D
:102A2C00958787E899E38087918781EC99E3828782
:102A3C00938789E295E186879787108A118A80E0CF
:062A4C00089580EF0895DB
:042A520080E0089583
:102A56009F92AF92BF92CF92DF92EF92FF920F9327
:102A66001F93CF93DF93CDB7DEB72897CDBFDEBFD9
:102A76005A018901FE01319697E0DF011D929A9570
:102A8600E9F797EC998390916F2A992319F0DD2441
:102A9600D3943EC091E090936F2A2130310511F412
:102AA60002E010E08A837B836C831E830F8367E0DA
:102AB600CF015BD0D82E8111EACF81EF888793EFC3
:102AC600C92E22EF922E01151105E1F07801013091
:102AD600B0E21B0718F0E12C80E2F82E0E191F0950
:102AE60009F4C88661E070E0CE01089607D2882313
:102AF60071F2B701C50102D2882349F29886AE0C5D
:102B0600BF1CE1CF83EC2FD28111C1CF10926F2A67
:102B16008D2D2896CDBFDEBFDF91CF911F910F91EE
:102B2600FF90EF90DF90CF90BF90AF909F90089569
:082B360070E180E090E00895D9
:0A2B3E006CE870E180E090E008957B
:0A2B480089819A81AB81BC81089558
:0A2B520022E030E040E050E008957A
:0A2B5C0049815A816B817C81089544
:0A2B660029833A834B835C830895B2
:102B7000CF93DF93EC0170E0C4D1882339F08881D2
:102B8000F5D191E0811103C090E001C091E0892F5F
:062B9000DF91CF910895D2
:102B9600009741F0E3ECF9E03197F1F700C000004F
:062BA6000197F6CF08952F
:082BAC0030E040E050E0089524
:102BB4000F931F93CF93DF93CDB7DEB72897CDBF85
:102BC400DEBF8A016F3F71058105910509F048F464
:102BD40024EC2D8320E82E83982F872F762F6627C9
:102BE40003C02AEC2D838E837F83688764E0CE0143
:102BF4000596BCDF81110BC064E070E0CE01019644
:102C0400E2D1811104C0A8DFF80106D201C081E03D
:102C14002896CDBFDEBFDF91CF911F910F9108950C
:102C2400DF92EF92FF920F931F93CF93DF93CDB771
:102C3400DEB72997CDBFDEBFFE01319697E0DF01F5
:102C44001D929A95E9F798EC998390916F2A9923AC
:102C540019F0DD24D39429C091E090936F2A8A83DC
:102C64007B836C832130310519F482E08F8302C0A9
:102C74003E832F8389017A0167E0CF0177DFD82E65
:102C84008111E7CF0130110549F462E070E0CE0113
:102C9400089699D19885F701908303C0B801C701BC
:102CA40092D18111D6CF10926F2A8D2D2996CDBF46
:102CB400DEBFDF91CF911F910F91FF90EF90DF90D6
:022CC400089571
:0A2CC6008D819E81AF81B8850895CD
:102CD000CF93DF9300D000D0CDB7DEB7B5DC88232B
:102CE00011F080E011C0F7D960E10E94C403AFDCAD
:102CF0008111F7CF898180FDF6CFA2DCC3D09BDCA8
:102D0000C1D0A2DC91E089272496CDBFDEBFDF9140
:042D1000CF910895C2
:102D1400CF93DF9300D000D0CDB7DEB720916F2AD8
:102D2400222311F0CAD80AC021E020936F2AD1D9F6
:102D34003FDF8111F7CF10926F2A73D12496CDBF54
:082D4400DEBFDF91CF9108957D
:0A2D4C006CEA77E082E090E0089561
:102D560020E030E0A9016CE870E180E090E00895A1
:102D6600CF92DF92EF92FF92CF93DF9300D000D005
:102D7600CDB7DEB75AD1C114D104E104F10409F08C
:102D860049C0A6D964EF73E180E090E05DDC811173
:102D960041C04DE754E360E0CBDE56DC81113AC01A
:102DA600ADE7B4E37ED8803A22E0920720E1A2079D
:102DB600B10551F4C6DE0197A105B10519F181EA05
:102DC60092E0A0E1B0E018C0803B9240A041B1057E
:102DD600C9F4B7DE83309105A105B10599F00497D2
:102DE600A105B10529F481EB92E0A0E1B0E004C0B1
:102DF60082EB92E0A0E1B0E0EDE7F4E3808391831B
:102E0600A283B38312D180EFE82225E0E22AADE760
:102E1600B4E312D1C701B6012496CDBFDEBFDF9160
:0C2E2600CF91FF90EF90DF90CF900895C7
:0E2E320021E0BBDE68E171E180E090E00895F0
:102E400020E034E040E050E060E074E180E090E0B9
:022E50000895E3
:102E520020E031E040E050E068E074E180E090E0A2
:102E620093DB81110BC020E030E041E050E060E0F4
:102E72007AE180E090E088DB91E0811190E0892F97
:022E82000895B1
:102E84008F929F92AF92BF92CF92DF92EF92FF9276
:102E9400CF93DF9300D000D0CDB7DEB76B017C01B8
:102EA40049015A0116D9D1DB4DDEAC01BD014821DF
:102EB40059216A217B21452B462B472B81F0B501F3
:102EC400A40140955095609570959A01AB01282313
:102ED40039234A235B2345DEC701B60149DD8091CE
:102EE4006F2A2496CDBFDEBFDF91CF91FF90EF9084
:0E2EF400DF90CF90BF90AF909F908F90089589
:102F0200AF92BF92CF92DF92EF92FF920F931F93F5
:102F1200CF93DF93009709F41CC0C5D0099594D0D4
:102F220080E8E816F10440F0D50198D060E870E03E
:102F3200C601099598D0F4CF9DD0E885F985800F18
:102F4200911F0995F0920504E881F981099581E0C4
:102F520001C080E0DF91CF911F910F91FF90EF9020
:0A2F6200DF90CF90BF90AF9008956C
:102F6C000F931F93CF93DF931F92CDB7DEB7082F2C
:102F7C001BE061E070E0CE01019697D0811102C098
:102F8C008FEF17C09981003F21F4892F807F803FFC
:102F9C0081F0091309C061E070E0CE01019685D083
:102FAC00882371F3898105C09111EACF115009F77B
:0E2FBC00E7CF0F90DF91CF911F910F910895F5
:102FCA00EF92FF920F931F93CF93DF937C01EB0154
:102FDA002097B9F08E01C13080E2D80710F000E0E6
:102FEA0010E280EFBEDF8C7011F081E00BC0B801F7
:102FFA00C7015CD08823C9F3E00EF11EC01BD10BB8
:10300A00E7CF80E0DF91CF911F910F91FF90EF9072
:02301A00089517
:0A301C00408351836283738308959B
:0A30260069817A818B819C810895F5
:0E303000EDE7F4E3C080D180E280F3800895E4
:0C303E00CD92DD92ED92FC921397089564
:10304A0080E8809306047E0168013CE0A32E34EBFD
:04305A00B32E0895F4
:0A305E001896ED91FC911997089562
:0E306800B0E8EB1AF10840E8C40ED11C089540
:103076009E01220F232F221F330B319590E8F92E44
:103086004F2D4203B001439F700D11246C0F7D1F1D
:10309600C9019695982F882797958795CCE0D4EB0C
:0230A60008958B
:0E30A800EB018C01E0910EB4F0910FB408958D
:1030B600AF92BF92CF92DF92EF92FF920F931F9340
:1030C600CF93DF93009709F41FC0EBDF0995BADFB2
:1030D60080E8E816F10458F0D5011A96ED91FC91B6
:1030E6001B9760E870E0C6010995BBDFF1CFC0DF32
:1030F600EA85FB85800F911F0995F0920504E8810A
:10310600F981099581E001C080E0DF91CF911F919F
:103116000F91FF90EF90DF90CF90BF90AF90089502
:043126000C94950D63
:0E312A000FB6F894EEEEF8E202D00FBE089554
:0A31380060837183828393830895FE
:10314200EF92FF920F931F93CF93DF93E091E828C2
:10315200F091E928238121FF23C08C01D0E0C0E057
:1031620086EEE82E88E2F82EF80181918F018823FD
:1031720069F0D70112966D917C911397DB016EDF96
:103182000995892B89F3DFEFCFEFEECF6091E82825
:103192007091E928DB0162DF8AE00995892B19F039
:1031A2008FEF9FEF02C08D2F9C2FCDB7DEB7E6E0E9
:0431B2000C94B009C0
:1031B600A4E0B0E0E1EEF8E10C94C6098C0142D03F
:1031C60069837A838B839C83F8018285938597FF35
:1031D6000EC0E091EC28F091ED28309741F062EFB7
:1031E60078E2CE0101960995F80182879387F80166
:1031F60082859385181619067CF4092E000CAA0BF5
:10320600BB0BA9DC6A017B01C81AD90AEA0AFB0AC8
:10321600C982DA82EB82FC8294DCE2EFF8E20E9459
:10322600270C841B950BA60BB70B89839A83AB835C
:10323600BC83B801CE010196A1D0F2DE2496E8E067
:043246000C94AE092D
:10324A00A0E0B0E0EBE2F9E10C94C209EC01EE81F6
:10325A00FF818F0104561109B1F0CF0185569109FA
:10326A006C0197FF03C023E0C20ED11CD594C7940A
:10327A00D594C7946CE97FEFC0D0C60ED71E8FEFE6
:10328A00C81AD80A02C0C12CD12C2DE631E0D801C7
:10329A00AED00D2C000CEE08FF080E942C0C8B817E
:1032AA00BFD08C01015011092D8122302CF4222328
:1032BA0059F1015E1F4F28C0CF018459984FC3D0DE
:1032CA00282F30E0255C3F4F200F311F8D81A8D079
:1032DA0002978530910514F027563F4F65E070E05C
:1032EA008CD0AC0197FF02C04F5F5F4F5595479551
:1032FA009DE3949F8001959F100D1124020F131FC7
:10330A0080FF02C0015E1F4FC801110FAA0BBB0B41
:10331A009C01AD012C0D3D1D4E1D5F1D60E871E540
:10332A0081E090E081D04B015C01AA810A2E000C59
:10333A00BB0B20E13EE05BD06B017C01A9810A2E28
:10334A00000CBB0B2CE330E052D00E942C0C68819D
:10335A00862F660F990BAA0BBB0B8C0D9D1DAE1DFC
:10336A00BF1DBC01CD01680D791D8A1D9B1DCDB7FE
:08337A00DEB7ECE00C94AA0997
:10338200A4E0B0E0E7ECF9E10C94C6096C017B0122
:10339200E091EC28F091ED28309729F062EF78E285
:1033A20009958C0102C00FEF1FEFF6010E94270C56
:1033B200E2EFF8E20E94AC0E840F951FA61FB71F22
:1033C200101611064CF4A801012E000C660B770BA7
:1033D200840F951FA61FB71F89839A83AB83BC8373
:1033E200B701CE01019646D0F701028713872496D2
:0633F200E8E00C94AE09B6
:0C33F800F0D0B7FF0895821B930B0895DE
:1034040097FB072E16F4009406D077FD08D0F2D06F
:1034140007FC05D03EF4909581959F4F08957095D3
:0634240061957F4F089541
:08342A00082E000C990B089517
:10343200DB018F939F93F3D0BF91AF91A29F800D39
:0E344200911DA39F900DB29F900D112408952F
:103450009C0123703327232B51F464E670E0D2DF04
:10346000892B39F46370772781E0672B19F080E0AE
:06347000089581E00895BB
:10347600A8E0B0E0E1E4FAE10C94C6098B01FC0196
:103486000E941C0D20E831E541E050E0E4D06901DE
:103496007A012CE388DBCBD063DB53DBF801608356
:1034A6006CE370E0ACDFDC01CB01F801A183828321
:1034B600C601069667E070E09CD084832DEA3EE85C
:1034C60040E050E0C701B601B2D029833A836D834C
:1034D6007E838F83988789819A8124E6289F60015D
:1034E600299FD00C11246D817E818F81988525EBD3
:1034F60035E040E050E09BD029833A836D837E839C
:10350600E980FA80EE0CFF1CEE0CFF1CEC0CFD1C97
:103516008D819E81F5E6EF16F10410F0019604C048
:1035260024E6E216F10419F021E030E002C020E0C2
:1035360030E0A90144595E4F4817590760F46DE61B
:1035460071E0821B930B5BDFDC01CB01E80EF91EF9
:10355600CD0120E030E044E6E40EF11CF801E682FD
:10356600F78280879187255C3F4F8217930740F447
:103576006FE170E044DFDC01CB01F80185831FC0F9
:1035860069E970E0821B930B3ADFDC01CB01F82E70
:10359600FF0CFF0CF80E6DE370E0CD0130DFDC01AF
:1035A600CB01E82EEE0C6FE170E0CD0128DFDC01E7
:1035B600CB0122E0280FF20EFE0CF801F582A38360
:1035C600F8011286138683818F5F83832896E8E04D
:0435D6000C94AE099A
:1035DA00A29FB001B39FC001A39F700D811D11244A
:0E35EA00911DB29F700D811D1124911D089539
:1035F800AA1BBB1B51E107C0AA1FBB1FA617B70711
:1036080010F0A61BB70B881F991F5A95A9F780952C
:083618009095BC01CD0108955D
:10362000DCDFA59F900DB49F900DA49F800D911D90
:0436300011240895C4
:10363400052E97FB16F4009474DD57FD05D00CD0CD
:1036440007FC02D046F46DCD5095409530952195F8
:083654003F4F4F4F5F4F0895F7
:10365C00A1E21A2EAA1BBB1BFD010DC0AA1FBB1F8A
:10366C00EE1FFF1FA217B307E407F50720F0A21BFC
:10367C00B30BE40BF50B661F771F881F991F1A9469
:10368C0069F760957095809590959B01AC01BD0193
:04369C00CF010895BD
:1036A0001F93FC0199278827BC01E89411911032DF
:1036B000E9F3193010F01E30C8F31B3249F01D3207
:1036C00041F4689405C00DD0610F711D811D911DDD
:1036D000119110531A30B8F316F40E94950D1F91F2
:0236E00008954B
:1036E200592F482F372F262F660F771F881F991FB4
:1036F200660F771F881F991F620F731F841F951F04
:0A370200660F771F881F991F0895B6
:04370C000C94000019
:103710000E943002EEEDF9E20E94E4030C948C0169
:10372000686F6D65617373697374616E742F73650F
:103730006E736F722F25735F74656D702F636F6E7C
:10374000666967007B227E223A2022686F6D656180
:103750007373697374616E742F73656E736F722FF8
:103760002573222C226465765F636C61223A227491
:10377000656D7065726174757265222C226E616D63
:1037800065223A224156522D496F542054656D707E
:1037900065726174757265222C22756E69715F693C
:1037A00064223A2225735F74656D70222C2265783D
:1037B000706972655F6166746572223A3330302CCD
:1037C0002269636F6E223A226D64693A7468657289
:1037D0006D6F6D657465722D6C696E6573222C2238
:1037E000737461745F74223A227E2F7374617465FE
:1037F000222C22756E69745F6F665F6D656173223E
:103800003A22C2B043222C2276616C5F74706C2223
:103810003A227B7B76616C75655F6A736F6E2E747E
:10382000656D707D7D222C22646576223A7B22694B
:103830006473223A5B2225735F74656D70222C20BD
:103840002225735F6C69676874225D2C226E616D3E
:1038500065223A224156522D496F54222C226D6620
:10386000223A224D6963726F636869702054656300
:10387000686E6F6C6F6779222C226D646C223A221D
:103880004156522D496F542053656E736F72204E0E
:103890006F6465222C227377223A22362E312E3025
:1038A000227D7D00686F6D65617373697374616EED
:1038B000742F73656E736F722F25735F6C69676801
:1038C000742F636F6E666967007B227E223A202226
:1038D000686F6D65617373697374616E742F73655E
:1038E0006E736F722F2573222C226465765F636C72
:1038F00061223A22696C6C756D696E616E63652236
:103900002C226E616D65223A224156522D496F5428
:10391000204C69676874222C22756E69715F696436
:10392000223A2225735F6C69676874222C226963CE
:103930006F6E223A226D64693A73756E2D776972E3
:10394000656C6573732D6F75746C696E65222C22BE
:103950006578706972655F6166746572223A3330AA
:103960002C22737461745F74223A227E2F73746107
:103970007465222C22756E69745F6F665F6D656178
:1039800073223A226C78222C2276616C5F74706C00
:10399000223A227B7B76616C75655F6A736F6E2E4F
:1039A0006C696768747D7D222C22646576223A7B7F
:1039B00022696473223A5B2225735F74656D7022FD
:1039C0002C202225735F6C69676874225D2C226E3F
:1039D000616D65223A224156522D496F54222C22A4
:1039E0006D66223A224D6963726F63686970205474
:1039F0006563686E6F6C6F6779222C226D646C2230
:103A00003A224156522D496F542053656E736F729E
:103A1000204E6F6465222C227377223A22362E3193
:103A20002E30227D7D00686F6D65617373697374DC
:103A3000616E742F73656E736F722F25732F73749D
:103A4000617465007B226C69676874223A25642C76
:103A50002274656D70223A25642E253032647D0013
:103A6000686F6D65617373697374616E742F7365CC
:103A70006E736F722F25735F74656D702F7365742D
:103A800000686F6D65617373697374616E742F7311
:103A9000656E736F722F25735F6C696768742F731F
:033AA0006574004A
:103AA30000FF920F931F93CF93DF9310E080910E4B
:103AB3002881FFAAC08091F628882309F45AC0817F
:103AC300508093F62811E0813049F50E94CE079F7C
:103AD300938F9380E297E79F938F938EE99CE29F66
:103AE300938F930E94E9030E94CE079F938F939F26
:103AF300938F939F938F939F938F9384E497E79FE1
:103B0300938F938EE99AE29F938F930E94E9032DFB
:103B1300B73EB72E5E3F4F2DBF3EBF62C0811169D6
:103B2300C00E94CE079F938F9384EA98E79F938F59
:103B3300938EE99CE29F938F930E94E9030E94CEA8
:103B4300079F938F939F938F939F938F939F938FAE
:103B53009389EC98E79F938F938EE99AE29F938FD3
:103B6300930E94E9032DB73EB72E5E3F4F2DBF3E14
:103B7300BF37C057D0EC0153D0082FF92E0E94CE87
:103B8300079F938F9386E29AE79F938F938EE99C87
:103B9300E29F938F930E94E903CE01D7FF04C0886D
:103BA3002799278C1B9D0B24E630E0B90129DC9F64
:103BB300938F93CE01B90124DC7F936F93FF920F10
:103BC3009384E49AE79F938F938EE99AE29F938F6E
:103BD300930E94E9032DB73EB7205F3F4F2DBF3EB1
:103BE300BF009739F0212FAC016EE97AE28EE99C90
:103BF300E211D0E7EEF9E20E94E403DF91CF911FD7
:103C0300910F91FF900C948C01DF91CF911F910F35
:053C130091FF900895EF
:0A3C1800E0912B29F0912C2909946A
:043C220085E01EC05B
:103C260065E088E12BD0A0E0B0E023E1880F991F82
:103C3600AA1FBB1F2A95D1F79C01AD0163E15595DB
:103C46004795379527956A95D1F7A4E6B0E0E5DC68
:0C3C560020E10E94D615EBDCC9010895A6
:103C62008093060681E08093080634D08823E9F326
:103C7200809110069091110621E020930B06089581
:103C82001F93CF93DF9300D01F92CDB7DEB7182FCB
:103C92006B83812F5DD08823E1F30E94160E81EEA3
:103CA20099E31CD061E070E0CE0103961BD060E086
:103CB20070E08EEB9DE326D029D02AD08130E9F343
:103CC20089819A8141D02396CDBFDEBFDF91CF910A
:043CD2001F910895A1
:083CD60080910B068170089536
:083CDE00AB01BC0180E06AC0EB
:103CE6009C019091ED3393FF0AC0EAECF3E3258F34
:103CF600368F678F70A3892F877F8093ED33089562
:083D0600AB01BC0182E056C0D4
:043D0E0080E073C01E
:103D120091D0882341F08091ED338D7F8093ED33F4
:103D220082E08093EC338091ED3381FD0BC08B7F79
:103D32008093ED338FEF8093E63370D075D080910E
:083D4200EC33089581E00895BF
:083D4A009827892798270895A6
:103D52009091ED3392FD2EC0EAECF3E38093E633CB
:103D6200892F887F9EE09093EB3324EF31E0228FFE
:103D7200338F846088608093ED3386EA9CE380838E
:103D8200918314861586828393831686178684838D
:103D92009583108A118A86839783128A138A84EA0A
:103DA2009CE380879187148A158A50D037D048D0F7
:083DB20080E0089581E008950E
:103DBA0090E0FC01EE0FFF1FE653FC4C6115710504
:103DCA0051F060837183880F991FFC01EA52FC4C01
:103DDA0040835183089526EA3CE320833183880F88
:0E3DEA00991FFC01EA52FC4C108211820895D0
:103DF8009091ED3391FD0DC092609093ED3388233F
:103E080011F081E001C082E08093EB3323D080E0A1
:063E1800089581E0089509
:0C3E1E00E0EAF8E08581806C858308955F
:0C3E2A00E0EAF8E083818F738383089541
:0C3E36008091A50882FB882780F9089580
:0C3E4200E0EAF8E08381806C838308953F
:0E3E4E002BD0886084838581816085830895F0
:103E5C00E0DF8091ED3380FF06C023D0882319F07A
:103E6C008FE08093EB3322D0882319F080E180938C
:103E7C00EB33DBDF882319F081E18093EB33E091A6
:103E8C00EB33F0E0EE0FFF1FE75CF54D0190F08196
:0A3E9C00E02D09958093EB330895A3
:083EA600E0EAF8E084810895D0
:0A3EAE008091A508829581700895A7
:0C3EB8008091A50883FB882780F90895FD
:083EC400813009F001C00895EE
:0C3ECC00809109288E7F809309280895BA
:103ED800CF92DF92EF92FF9276D06B017C0161D096
:103EE8008823A1F0A6EBBDE22D913D914D915C9107
:103EF800C701B6016CD0653071058105910564F084
:103F0800E6EBFDE20E944F04C9DD06C0E7EEF9E2E8
:103F18004DD0CF010E948C0180910E2883FD20C0D6
:103F280081FF06C0E9EFF9E22FD0CF010E948C0192
:103F380080910E2884FD14C034D0882321F0E0EF4E
:103F4800F9E222D00AC080910E2887FF09C0E0EF6D
:103F5800F9E28AEF90E00E94DF07CF010E948C010E
:103F680080910E28EEEDF9E282FF02C00DD001C06B
:103F78001DD0CF010E948C0164E60E94C403FF900B
:083F8800EF90DF90CF90089547
:103F900081E090E0A0E0B0E080839183A283B383CE
:0A3FA000148215821682178208951C
:0A3FAA00E0912F29F09130290994CD
:103FB400108211821282138281E090E0A0E0B0E0CE
:0A3FC40084839583A683B7830895D4
:083FCE00E8E7F4E30C941C0D7C
:023FD60000C029
:0A3FD800621B730B840B950B089518
:103FE2004D4348502E494F54006D6963726F6368A8
:063FF20069700025640067
:103FF80081E099E20E9467030E940D040C946E030D
:1040080088EDA89584BF80910001816080930001AC
:0A4018008091010181FDFCCFFFCF74
:104022004F4B0D00646562756720706172616D654A
:10403200746572206D757374206265206265747791
:1040420065656E203020284C656173742920616E8D
:1040520064203420284D6F737429200D00342E31D2
:104062002E32007625730D0A0400312E302E3100D7
:1040720025730D0A0400556E6B6E6F776E2E0D0A56
:1040820004004572726F722067657474696E6720EE
:104092005468696E67204E616D652E0D0A04002C0E
:1040A200004F4B0D0A04004572726F722E20486F4A
:1040B200737420636F6D6D616E6420666F726D61E3
:1040C2007420697320686F7374203C616464726544
:1040D20073733E2C706F72742C61646472657373B7
:1040E2005F747970650D0A040000003100256400D8
:1040F2004572726F722E2057692D466920636F6D6B
:104102006D616E6420666F726D61742069732077D1
:10411200696669203C737369643E5B2C3C70617311
:10412200733E2C5B61757468547970655D5D0D0A30
:1041320004004572726F722E204D51545420636FE9
:104142006D6D616E6420666F726D6174206973209B
:104152006D717474203C757365723E2C3C70617392
:10416200733E5B2C3C6369643E5D0D0A04002D2D99
:104172002D2D2D2D2D2D2D2D2D2D2D2D2D2D2D2D6D
:104182002D2D2D2D2D2D2D2D2D2D2D2D2D2D2D2D5D
:104192002D2D2D2D2D2D2D2D2D2D0D0A556E6B6EA8
:1041A2006F776E20636F6D6D616E642E204C697344
:1041B20074206F6620617661696C61626C65206350
:1041C2006F6D6D616E64733A0D0A72657365740D7D
:1041D2000A6465766963650D0A7468696E670D0A1B
:1041E2007265636F6E6E6563740D0A7665727369CC
:1041F2006F6E0D0A636C695F76657273696F6E0D1F
:104202000A77696669203C737369643E5B2C3C7073
:104212006173733E2C5B61757468547970655D5D82
:104222000D0A6D717474205B3C757365723E5D2C72
:104232005B3C706173733E5D2C5B6369645D0D0A68
:1042420062726F6B6572203C616464726573733E67
:104252002C3C706F72743E2C3C61646472657373A3
:10426200747970653E0D0A64656275670D0A2D2DBD
:104272002D2D2D2D2D2D2D2D2D2D2D2D2D2D2D2D6C
:104282002D2D2D2D2D2D2D2D2D2D2D2D2D2D2D2D5C
:104292002D2D2D2D2D2D2D2D2D2D0D0A04000D0A28
:1042A200436F6D6D616E6420746F6F206C6F6E670B
:1042B2000D007265736574007265636F6E6E65637F
:1042C200740077696669006D7174740062726F6B55
:1042D2006572007468696E6700646576696365007B
:1042E200636C695F76657273696F6E00766572736F
:0A42F200696F6E0064656275670075
:1042FC00FC0180818053853020F407D082E290E865
:0A430C0002C086E290E80C94A118AC
:0643160080932C2E089597
:10431C008FE590E89F938F9385E690E89F938F931A
:0C432C0005D00F900F900F900F90089597
:10433800A0E0B0E0E2EAF1E20C94CC09AE014B5FF8
:104348005F4FFA0161917191AF018091E8289091D6
:0C435800E9280E94EA07E2E00C94B40996
:104364008CE690E89F938F9385E690E89F938F93D4
:0C437400E1DF0F900F900F900F90089564
:104380008091BB2D9091BC2D009761F09F938F93EE
:1043900082E790E89F938F93CFDF0F900F900F905D
:1043A0000F90089588E790E89F938F93C5DF0F9053
:0443B0000F900895CD
:1043B400E091A629F091A729E05CFF4F8081882332
:1043C40061F0FF93EF9382E790E89F938F93B2DFBE
:1043D4000F900F900F900F90089584E890E89F93AA
:0A43E4008F93A8DF0F900F9008954B
:1043EE00CF92DF92EF92FF920F931F93CF93DF93B3
:1043FE00CDB7DEB72697CDBFDEBF61EA70E84ED0EF
:10440E0095D0009731F00E151F0519F09DD046D0AE
:10441E00F8CF09811A810115110551F1EB80FC804D
:10442E00E114F10429F1CD80DE80C114D10401F133
:10443E0083EA90E89F938F9378DFC6012CD0D82E15
:10444E00C70129D04D2DBC01C8012BD05DD00F90D6
:10445E000F908823A1F05FD02696CDBFDEBFDF91EF
:10446E00CF911F910F91FF90EF90DF90CF9056C09C
:10447E0089EA90E89F938F9358DF0F900F902696BE
:10448E00CDBFDEBFDF91CF911F910F91FF90EF90C7
:06449E00DF90CF900895AD
:0644A400FDD8CB010895D4
:0644AA004CE155E35CC08B
:1044B000FF920F931F93CF93DF93D82FF92E8B0189
:1044C000C42F81E00E949904FF92DF931F9280E243
:1044D0008F930E949404805A9F4F9F938F930E94C2
:1044E000540481E00E9481040E949404FC01E0587D
:1044F000FF4F008311833296C0830F900F900F906F
:104500000F900F900F9080E0DF91CF911F910F914E
:06451000FF900C948104F1
:0E4516004FD091E0833009F090E0892F089596
:0645240084E493E3089516
:10452A0048D049D021E0892B09F020E0822F089554
:10453A0089839A831B821C821D821E828E010F5FD1
:0C454A001F4F7E0127E0E20EF11C0895D7
:10455600F801819391938F0161EA70E880E090E021
:024566000895B6
:10456800FA01A191B081009719F41097E1F0CD01FB
:10457800DC01CD010D90002011F4C00113C0FB0136
:104588002191222319F02015D9F7F3CFFB012191AE
:10459800201519F41E92119606C02223C1F70D901A
:0E45A8000020A1F7D001FA01A193B08308957D
:0645B600809156330895C8
:0445BC00DC011CC042
:1045C000CF93C82F5AD0009711F0FC0114828C2F82
:1045D0001CD0882351F0873F21F08A3F49F489E0BD
:1045E00001C085E08093B23303C080E090E002C058
:0845F0008FEF9FEFCF910895BA
:1045F8005096ED91FC9151978081082E000C990BF3
:02460800089513
:10460A000F931F93CF93DF9300D000D0CDB7DEB7BF
:10461A0087FD23C0082F082E000C110B50D090855F
:10462A009923D9F08983848195818B839C838185A1
:10463A0080FF02C06EE401C069E444D082E00E94B7
:10464A00AB1081110CC09BE0909FF001919F3DD06F
:10465A00DF011D929A95E9F703C08AEF01C087EF3F
:10466A002496CDBFDEBFDF91CF911F910F910895A0
:10467A00E091B033F091B133309759F0A081B18114
:10468A002C91022E000C330B482F50E024173507CB
:10469A0089F09F012B5F3F4F79F00580F681E02D6D
:1046AA004081042E000C550B90E04817590721F45D
:0E46BA00C9010895CF01089580E090E00895B1
:0646C8009BE0890208C01E
:0646CE0024E00C94C01270
:0A46D400F00D1124ED55FB4C089584
:0A46DE00F0011124ED55FB4C089586
:1046E800CF92DF92EF92FF921F93CF93DF93CDB7D4
:1046F800DEB72697CDBFDEBF1B821C821D821E82BD
:1047080061EA70E8CEDE89839A839E012F5F3F4F6E
:10471800790110E0009769F0133059F0F70181939F
:1047280091937F011F5F61EA70E880E090E0B9DE55
:10473800F1CFE980FA80E114F104C9F02B813C81C2
:104748008D819E812115310519F4009771F415C0EA
:10475800009759F4C901A2DE9EEF980F923008F431
:1047680042C0813051F012E01CC098DE182F113081
:1047780021F0C8F11430A8F036C040E250E0B7018B
:1047880085E698E20E94AD046BEE70E886E898E250
:104798000E9491026DEE70E887EC98E20E94910207
:1047A80034C040E250E0B70185E698E20E94AD04CB
:1047B8006B817C8140E450E086E898E20E94AD0479
:1047C8001F921F938FEE90E89F938F9387EC98E248
:1047D8009F938F930E94E9030F900F900F900F9073
:1047E8000F900F9012C082EF90E89F938F93A0DDF7
:1047F8000F900F902696CDBFDEBFDF91CF911F910E
:10480800FF90EF90DF90CF90089583EA90E89F9310
:104818008F938EDDC6DB0F900F90882311F07EDE1C
:1048280080DE80910E2887FF05C08F7780930E2841
:1048380075DE23D053D0E7EEF9E20E941D020E94F4
:104848008C01EEEDF9E20E9490020E948C01E0EFEB
:10485800F9E20E9490020E948C01E9EFF9E20E94BD
:1048680008042696CDBFDEBFDF91CF911F91FF9040
:0A487800EF90DF90CF900C948C01BC
:104882000F931F93CF93DF9300D0CDB7DEB7209164
:10489200563322502230E0F48C0181E29AE20E94E7
:1048A200210419821A82C80129D0C801089626D08B
:1048B20089818870806E877F85D0C80127D084D097
:1048C20025D0C80166D081111092AF3310925633B1
:1048D200809156330F900F90DF91CF911F910F91DE
:0248E200089537
:1048E40080910E2881FF06C073D091E0882319F0CF
:0A48F40090E001C091E0892F0895C3
:1048FE00FC018081918182839383168217820895B1
:10490E00EF92FF920F931F93CF93DF93FC01EB0176
:10491E007A0100811181648175819B0121503109D9
:10492E00200F311F82819381801B910B468157810D
:10493E00840F951F0E94FC1AD801A80FB91FAE0153
:10494E004E0D5F1DC417D507B1F02A173B0710F4A3
:10495E00A081B18186819781892B29F082819381F3
:10496E00A817B90741F089918D9386819781019699
:10497E0086839783E7CFC701DF91CF911F910F9168
:06498E00FF90EF90089578
:10499400FC0146815781608171810088F189E02D95
:1049A400808120E030E00E94151A17D09C0180938A
:1049B4008A2E90938B2E81E0121613060CF080E061
:0249C400089554
:0449C60089833CC0E5
:0A49CA0041D06E5F7F4FC8010895D1
:0A49D40040D06BE281E00C94AB10C0
:1049DE00EF92FF920F931F93CF93DF93232B11F040
:1049EE0086E11AC0EA018B017C0120E030E02FD075
:1049FE008823A9F0823F79F08A3F99F4F7FE02C02E
:104A0E0086E20AC0012B11F48EE006C0C937D540EC
:104A1E0038F388E201C087E38093B23302C0CE013F
:104A2E0002C08FEF9FEFDF91CF911F910F91FF90FB
:044A3E00EF90089558
:0C4A420041E050E0BE016F5F7F4F08951F
:084A4E0041E050E0BE010895B3
:064A560020E00C94D615CF
:104A5C00CF92DF92EF92FF920F931F93CF93DF933E
:104A6C00CDB7DEB76097CDBFDEBF87FD2EC0611519
:104A7C00710509F42AC0493795E0590730F532D051
:104A8C0021F189834B835C83248135812D873E877B
:104A9C0087301CF024E430E002C020E530E02CD05C
:104AAC00818580FF04C0268137818CE401C085E4B8
:104ABC007A018B01682F6068690120E126D00E9481
:104ACC00F511882319F082EF01C08AEF6096CDBFF3
:104ADC00DEBFDF91CF911F910F91FF90EF90DF9090
:044AEC00CF900895CA
:104AF000A82F082E000CBB0B9BE08902F0DD9085EF
:044B00009923089558
:104B04008BE08A9FF0018B9FF00D1124ED55FB4C37
:024B1400089502
:084B16000E94C01282E0089524
:104B1E00CF92DF92EF92FF92E7EEF9E20E941D0232
:104B2E000E948C01EEEDF9E20E9490020E948C012F
:104B3E00E0EFF9E20E9408040E948C0180910E2899
:104B4E008F7780930E28E7DC95DE82E290E8FF9067
:0A4B5E00EF90DF90CF900C94A118A7
:104B6800EF92FF920F931F93CF93DF93CDB7DEB7EA
:104B78002697CDBFDEBF61EA70E893DCDADC0097E8
:104B880031F00E151F0519F0E2DC8BDCF8CF098136
:104B98001A810115110501F1EB80FC80E114F10483
:104BA800D9F083EA90E89F938F93C2DB4D815E81B1
:104BB800B701C8010E94A702AADC0F900F908823B2
:104BC80091F0ACDC2696CDBFDEBFDF91CF911F916F
:104BD8000F91FF90EF90A5CC84E391E89F938F937A
:104BE800A7DB0F900F902696CDBFDEBFDF91CF9148
:0A4BF8001F910F91FF90EF900895B8
:104C02005F926F927F928F929F92AF92BF92CF925A
:104C1200DF92EF92FF920F931F93CF93DF93C0E047
:104C22008CE9C82E84EBD82ED60116966D907C9016
:104C320017979CEA892E9DE8992E20E7A22E21E85B
:104C4200B22EF3010995882309F475C0D601ED91BE
:104C5200FC910995E091BE2D8D3019F08A3009F052
:104C62005BC0F0E0E154F24D10829091BD2D9111A4
:104C720046C091E08A3029F42091BA2D2D3009F4F2
:104C820090E08093BA2D9923D1F1C11138C060E22E
:104C920070E08FEB9DE26AD08C01009719F0FC0165
:104CA20011928F01EFEBFDE201900020E9F73197BD
:104CB200EF5BFD425E2EC4E8DDE8E880F980B701D3
:104CC2008FEB9DE24AD0F70101900020E9F731977E
:104CD200EE19FF09811109C05E1207C0EA81FB814A
:104CE200309719F0C801099509C024968C169D06C3
:104CF20021F7BF92AF921FDB0F900F90C1E080911E
:104D0200BD2D882321F080EA92E80E94A11810921A
:104D1200BE2D1092BD2D95CFE43648F491E09E0F42
:104D22009093BE2DF0E0E154F24D80838ACF81E072
:104D32008093BD2D86CF0E94F914DF91CF911F91F0
:104D42000F91FF90EF90DF90CF90BF90AF909F9028
:0A4D52008F907F906F905F9008959E
:104D5C00FB01DC018D91019080190110D9F3990BA5
:024D6C000895A8
:104D6E00FC018191861721F08823D9F799270895A0
:064D7E003197CF010895FA
:104D8400B4820420BA828F25C4827423C982B425D4
:104D9400CE82F721D582DA21DB82C021E282B221E0
:084DA400EE828E21F6827E21D1
:104DAC000F931F93CF93DF938C01EB011FD019D07E
:104DBC0080910928846080930928C8010E942104ED
:104DCC0040ED57E060E070E0CE010E946E038091F0
:104DDC000928826080930928DF91CF911F910F9150
:024DEC00089528
:0A4DEE0060E070E080E80C94B00C67
:0A4DF80060E070E081E80C94B00C5C
:104E0200CF92DF92EF92FF920F931F93CF93DF9394
:104E1200CDB7DEB76097CDBFDEBF0E94B71109F4F0
:104E220045C06B017C0182E090E089839A83E09126
:104E3200A629F091A729E058FF4F80819181CCD01B
:104E42008B839C83CD82DE82EF82F8866ADB8C01C3
:104E5200B4DB42D0811115C0F801E088F18840E04E
:104E620050E061E070E082E090E097D0D7018C934F
:104E72002CD087FD06C000DC009719F021E0FC0170
:104E82002483D80121D028D0813081F41ED040E182
:104E920050E0BE016F5F7F4F0E94151A25D0F82E99
:104EA200882329F0D80110D08ADB01C0F12C8F2D84
:104EB2006096CDBFDEBFDF91CF911F910F91FF9022
:084EC200EF90DF90CF900895FE
:024ECA0096CB85
:0E4ECC00D8015096ED91FC9151978081089588
:104EDA00CFDB009719F0FC018481089580E00895E2
:104EEA00AF92BF92CF92DF92EF92FF920F931F93EE
:104EFA00CF93DF93CDB7DEB76097CDBFDEBF8C010E
:104F0A005B016A01B5DB7C01892B99F1F50181917D
:104F1A00919189839A832EE0DE01139601900D9276
:104F2A002A95E1F78230910509F589839A834C2DF8
:104F3A000E94160E802F4ED0882391F0873F71F081
:104F4A008A3FB9F417FF02C086E211C0AB2811F4F8
:104F5A0081E30DC0CD28C1F786E109C085E007C00D
:104F6A0082E0F701848380E090E005C08FE28093BD
:104F7A00B2338FEF9FEF6096CDBFDEBFDF91CF9147
:104F8A001F910F91FF90EF90DF90CF90BF90AF905D
:024F9A00089578
:104F9C00823049F477276130710539F06230710540
:104FAC0011F462E003C08FE20BC061E0423038F4D0
:104FBC0082E090E052D087FF08C08DE001C086E10E
:0E4FCC008093B2338FEF9FEF08950C94151A67
:044FDA000C94A51E70
:104FDE00CF93DF93CDB7DEB72C97CDBFDEBFFB01EE
:104FEE0087FD33C0309789F1282F082E000C330B24
:104FFE009BE08902D0011124AD55BB4C18969C91B3
:10500E001897992311F1442301F119969C9190FF61
:10501E0003C09A876BE401C064E4898788E0DE01EF
:10502E0011960E94190AE9F78BE0829FF001839F87
:10503E004ADB848195818B879C872CE065DD0E94FD
:10504E00AB10882319F087EF01C08AEF2C96CDBFE5
:08505E00DEBFDF91CF91089540
:10506600EF92FF921F93CF93DF9300D000D0CDB77E
:10507600DEB7029709F064C06130F1F410919534FF
:1050860027E03BE087E0E82EF12C812F90E0389F67
:10509600F001399F1CDB0196B7010E94021A908528
:1050A600911103C08093953427C02150182F69F7BA
:1050B600809395341FEF20C0623009F041C01091F3
:1050C600943424E08BE0189FF0011124E051FB4C4E
:1050D600812F90E00196837099273085311104C0A5
:1050E60080939434195F06C02150182F59F7809386
:1050F60094341FEF309729F18BE0DF011D928A95DA
:10510600E9F781E0808727D09C012F5F3F4F29F088
:105116002093A1343093A23405C002968093A13423
:105126009093A23418D08483958340FF0AC01983D4
:1051360081E28187C9DA60E582E00E94AB1001C096
:105146001FEF812F2496CDBFDEBFDF91CF911F9138
:06515600FF90EF900895A8
:0A515C008091A1349091A2340895CF
:105166000E94E71F672B682B692B09F006D08091F8
:0A517600092880618093092808953C
:105180000F931F93CF93DF93CDB7DEB76D97CDBF4E
:10519000DEBF0E941D0A8DE1F80111928A95E9F7A0
:1051A0008CE390E08E879F87A091A629B091A729D4
:1051B000CD01805C9F4F8A8B9B8B80978A8F9B8FC2
:1051C000FC0101900020E9F73197E81BF90BE88F0B
:1051D000F98FAE8BBF8BFD0101900020E9F731976D
:1051E000EA1BFB0BEC8BFD8B8CEB94E39DD0C80191
:1051F00008D06D96CDBFDEBFDF91CF911F910F918B
:0252000008950F
:10520200CF93DF93FC018DE1A1E9B3E3ED011992A4
:105212008A95E9F7809191338F7080618093913301
:1052220084E0809397339DE49093983391E5909333
:10523200993394E590939A3390939B3380939C3364
:105242006789708D6115710521F483899489892B91
:1052520011F082EC01C082E080939D33A1E9B3E3B7
:10526200858596850E94A51E1D968D939C931E97FB
:105272008189928951968D939C935297EC01099062
:105282000020E9F79E0121503109281B390B50D02B
:1052920040919D3346FF0AC0818D928D59968D9320
:1052A2009C935A9757966D937C93589747FF18C0D3
:1052B20085899689A1E9B3E355968D939C93569778
:1052C2006389748953966D937C93549757968D9105
:1052D2009C915897860F971F0496820F931F01C0C7
:1052E200C901E1E9F3E30C96838F948F407C61F06E
:1052F2008789908D0E94A51E878B908F83899489C0
:105302000E94A51E838B948B32272327322720935A
:10531200A0333093A13381E08093AF33809356332F
:06532200DF91CF91089518
:0A5328008093E4289093E52808958F
:0A5332001F962D933C9350970895A9
:10533C0008D0882329F0809109288F7E8093092832
:02534C000895C2
:10534E00CF93DF93CDB7DEB76397CDBFDEBF80912E
:10535E00242E9091252E21E02E831F82FC01A08108
:10536E00B181AA87BB87FD0101900020E9F7319733
:10537E00EA1BFB0BE887F9871C86FC01A481B5812B
:10538E00AF87B88BFD0101900020E9F73197EA1B3A
:10539E00FB0BED87FE87198ACE01019606D0639628
:0A53AE00CDBFDEBFDF91CF9108955F
:1053B800CF93DF93FC0180915633833009F04EC0C0
:1053C8008091AE3382FD4AC0ADE6B3E383E1ED01DF
:1053D80019928A95E9F780916D3389708268809374
:1053E8006D338581809372338681809373335196B0
:1053F8004D915C91529727813085922F832F179674
:105408008D939C9318978185928519968D939C937B
:105418001A9783858093783384859585782F692FAB
:105428001C966D937C931D97668577851E966D9364
:105438007C931F97608960937D33240F351F280F55
:10544800391F285F3F4F51962D933C935297809177
:10545800AF3388608093AF3381E001C080E0DF9193
:04546800CF91089543
:02546C0000C07E
:10546E00CF93DF93CDB7DEB76197CDBFDEBF298374
:10547E00888799876E877F874C875D87CE010196D7
:0E548E0006D06196CDBFDEBFDF91CF910895AD
:10549C00CF93DF93FC0181E1A0E8B3E3ED01199216
:1054AC008A95E9F780915633833009F06BC090915F
:1054BC0080339F70906390938033808183FB882727
:1054CC0080F980FB93F99093803380818670997F6B
:1054DC00982B90938033892F8E70883019F4977F96
:1054EC00909380339081A0E8B3E38091803390FB5C
:1054FC0080F9809380338781908517968D939C9348
:10550C00189727813085E90109900020E9F7CE0131
:10551C000197821B930B15968D939C931697208164
:10552C002695237049F02185209389332285209379
:10553C008A3322E030E0F7DE25853685A0E8B3E338
:10554C001D962D933C931E97438554851B964D9326
:10555C005C931C971F962D913C915097240F351FEF
:10556C002E5F3F4F280F391FDEDE0E94A51E1596B9
:10557C008D939C9316978091AF3384608093AF3357
:0C558C0081E001C080E0DF91CF91089524
:0E5598000ED8833019F40E9492226FC9089534
:0C55A60007D891E0811190E0892F089552
:1055B200809109288E7F877F809309280C945F0F42
:1055C2000E94160421F0EAE0F8E20C940E18089505
:1055D200CF93DF9310920A2810920B2810920C2876
:1055E20010920D2880910E288D7F886080930E285E
:1055F20080910928877F8B7F809309280E94C106AA
:1056020061EE7AE28FED9AE339D041D0CFE0D8E271
:105612008AE0FE0111928A95E9F7CE0161D00E94DB
:105622009222FC0180899189888399838AE295E399
:105632008A839B8380916528882329F081E0909159
:10564200C728911101C080E050D0882369F083E31C
:1056520099E20E94210471D00E946E038091092870
:105662008D7F8860816003C0809109288E7F80933E
:0C56720009280E945F0FDF91CF9108957E
:10567E0080939F349093A03460939D3470939E34A6
:02568E0008957D
:10569000CF93DF935AD0C2EFD0E318821982ACE8DF
:1056A000BEE21D921C921197E4E4F3E3C083D18320
:1056B00082E592E084839583C283D3831682178226
:1056C000A087B18786E692E084879587A287B38713
:1056D0001686178682E09AE2808B918BDF91CF91BC
:0256E00008952B
:0A56E2008093B0339093B133089524
:1056EC000F931F938130B1F487EC98E20E94522201
:1056FC00E5E6F8E201900020E9F73197BF01655625
:10570C0078420FEF10E026E838E2482F85E698E261
:10571C0019D001C020D0882339F080910E288460E4
:10572C0080930E2880E001C081E01F910F910895B5
:0E573C0040E157E260E070E08DE399E20895ED
:06574A0010925633089591
:10575000EF920F931F93E12C09D01F910F91EF90BF
:025760000895AA
:0A57620079D969E281E00C94AB10E4
:10576C00CF92DF92EF920F93CF93DF93CDB7DEB74B
:10577C002B97CDBFDEBF6C01F90119821A828B8386
:10578C009C836D830E83E11002C082E001C080E037
:10579C006132C8F04230D9F038F4413009F044C0DD
:1057AC000E94160E18D141C0433059F1443009F40F
:1057BC0037C03AC0615048F09601260F311DD9010F
:1057CC002C912111F7CF962FF5CF9D83E3CF3097F6
:1057DC0059F11F82188619861A861B86DF010D90D7
:1057EC000020E9F71197AE1BBF0BA034B10519F4DB
